{"abi":[{"type":"function","name":"efficientRequireProven","inputs":[{"name":"","type":"bytes","internalType":"bytes"}],"outputs":[],"stateMutability":"pure"},{"type":"function","name":"isProven","inputs":[{"name":"","type":"uint256","internalType":"uint256"},{"name":"","type":"bytes32","internalType":"bytes32"},{"name":"","type":"bytes32","internalType":"bytes32"},{"name":"","type":"bytes32","internalType":"bytes32"}],"outputs":[{"name":"","type":"bool","internalType":"bool"}],"stateMutability":"pure"}],"bytecode":{"object":"0x6080604052348015600e575f5ffd5b506101848061001c5f395ff3fe608060405234801561000f575f5ffd5b5060043610610034575f3560e01c80633ff04aff14610038578063ae0dd77014610063575b5f5ffd5b61004f6100463660046100b1565b5f949350505050565b604051901515815260200160405180910390f35b6100766100713660046100e0565b610078565b005b60405162461bcd60e51b815260206004820152600a6024820152692727aa2fa82927ab22a760b11b604482015260640160405180910390fd5b5f5f5f5f608085870312156100c4575f5ffd5b5050823594602084013594506040840135936060013592509050565b5f5f602083850312156100f1575f5ffd5b823567ffffffffffffffff811115610107575f5ffd5b8301601f81018513610117575f5ffd5b803567ffffffffffffffff81111561012d575f5ffd5b85602082840101111561013e575f5ffd5b602091909101959094509250505056fea264697066735822122021da3c0bf62084fc4ec9290717e4e65fd58c0a00c0f02162fdaf3dc4e5285cf364736f6c634300081b0033","linkReferences":{}},"methodIdentifiers":{"efficientRequireProven(bytes)":"ae0dd770","isProven(uint256,bytes32,bytes32,bytes32)":"3ff04aff"},"id":0}