{"abi":[{"type":"function","name":"dispatch","inputs":[{"name":"","type":"uint32","internalType":"uint32"},{"name":"","type":"bytes32","internalType":"bytes32"},{"name":"","type":"bytes","internalType":"bytes"},{"name":"","type":"bytes","internalType":"bytes"},{"name":"","type":"address","internalType":"contract IPostDispatchHook"}],"outputs":[{"name":"messageId","type":"bytes32","internalType":"bytes32"}],"stateMutability":"payable"},{"type":"function","name":"dispatchCounter","inputs":[],"outputs":[{"name":"","type":"uint256","internalType":"uint256"}],"stateMutability":"view"},{"type":"function","name":"localDomain","inputs":[],"outputs":[{"name":"","type":"uint32","internalType":"uint32"}],"stateMutability":"pure"},{"type":"function","name":"quoteDispatch","inputs":[{"name":"","type":"uint32","internalType":"uint32"},{"name":"","type":"bytes32","internalType":"bytes32"},{"name":"","type":"bytes","internalType":"bytes"},{"name":"","type":"bytes","internalType":"bytes"},{"name":"","type":"address","internalType":"contract IPostDispatchHook"}],"outputs":[{"name":"","type":"uint256","internalType":"uint256"}],"stateMutability":"pure"},{"type":"event","name":"DispatchId","inputs":[{"name":"messageId","type":"bytes32","indexed":true,"internalType":"bytes32"}],"anonymous":false}],"bytecode":{"object":"0x6080604052348015600e575f80fd5b506102818061001c5f395ff3fe60806040526004361061003e575f3560e01c806310b83dc01461004257806381d2ea95146100685780638d3638f41461008e578063ca6eb378146100a9575b5f80fd5b610055610050366004610175565b6100bd565b6040519081526020015b60405180910390f35b348015610073575f80fd5b50610055610082366004610175565b5f979650505050505050565b348015610099575f80fd5b506040516001815260200161005f565b3480156100b4575f80fd5b506100555f5481565b5f60015f808282546100cf9190610226565b90915550505f546040805160208101929092520160408051601f19818403018152908290528051602090910120915081907f788dbc1b7152732178210e7f4d9d010ef016f9eafbe66786bd7169f56e0c353a905f90a2979650505050505050565b5f8083601f840112610140575f80fd5b50813567ffffffffffffffff811115610157575f80fd5b60208301915083602082850101111561016e575f80fd5b9250929050565b5f805f805f805f60a0888a03121561018b575f80fd5b873563ffffffff8116811461019e575f80fd5b965060208801359550604088013567ffffffffffffffff8111156101c0575f80fd5b6101cc8a828b01610130565b909650945050606088013567ffffffffffffffff8111156101eb575f80fd5b6101f78a828b01610130565b90945092505060808801356001600160a01b0381168114610216575f80fd5b8091505092959891949750929550565b8082018082111561024557634e487b7160e01b5f52601160045260245ffd5b9291505056fea2646970667358221220b8a7e52067e70d6da6b00d9853c1f2051a8939b23d8e395d4f6754790b6c845f64736f6c634300081a0033","linkReferences":{}},"methodIdentifiers":{"dispatch(uint32,bytes32,bytes,bytes,address)":"10b83dc0","dispatchCounter()":"ca6eb378","localDomain()":"8d3638f4","quoteDispatch(uint32,bytes32,bytes,bytes,address)":"81d2ea95"},"id":0}