{"abi":[{"type":"function","name":"fill","inputs":[{"name":"","type":"bytes32","internalType":"bytes32"},{"name":"","type":"tuple","internalType":"struct MandateOutput","components":[{"name":"oracle","type":"bytes32","internalType":"bytes32"},{"name":"settler","type":"bytes32","internalType":"bytes32"},{"name":"chainId","type":"uint256","internalType":"uint256"},{"name":"token","type":"bytes32","internalType":"bytes32"},{"name":"amount","type":"uint256","internalType":"uint256"},{"name":"recipient","type":"bytes32","internalType":"bytes32"},{"name":"callbackData","type":"bytes","internalType":"bytes"},{"name":"context","type":"bytes","internalType":"bytes"}]},{"name":"","type":"uint48","internalType":"uint48"},{"name":"","type":"bytes","internalType":"bytes"}],"outputs":[{"name":"","type":"bytes32","internalType":"bytes32"}],"stateMutability":"payable"},{"type":"function","name":"fillOrderOutputs","inputs":[{"name":"","type":"bytes32","internalType":"bytes32"},{"name":"","type":"tuple[]","internalType":"struct MandateOutput[]","components":[{"name":"oracle","type":"bytes32","internalType":"bytes32"},{"name":"settler","type":"bytes32","internalType":"bytes32"},{"name":"chainId","type":"uint256","internalType":"uint256"},{"name":"token","type":"bytes32","internalType":"bytes32"},{"name":"amount","type":"uint256","internalType":"uint256"},{"name":"recipient","type":"bytes32","internalType":"bytes32"},{"name":"callbackData","type":"bytes","internalType":"bytes"},{"name":"context","type":"bytes","internalType":"bytes"}]},{"name":"","type":"uint48","internalType":"uint48"},{"name":"","type":"bytes","internalType":"bytes"}],"outputs":[],"stateMutability":"payable"},{"type":"error","name":"FillRejected","inputs":[]}],"bytecode":{"object":"0x6080604052348015600e575f5ffd5b506102728061001c5f395ff3fe608060405260043610610028575f3560e01c80637e7fc6531461002c578063978fb89614610041575b5f5ffd5b61003f61003a3660046100f8565b610066565b005b61005461004f3660046101b3565b61007f565b60405190815260200160405180910390f35b60405163530fcc8160e01b815260040160405180910390fd5b5f60405163530fcc8160e01b815260040160405180910390fd5b803565ffffffffffff811681146100ae575f5ffd5b919050565b5f5f83601f8401126100c3575f5ffd5b50813567ffffffffffffffff8111156100da575f5ffd5b6020830191508360208285010111156100f1575f5ffd5b9250929050565b5f5f5f5f5f5f6080878903121561010d575f5ffd5b86359550602087013567ffffffffffffffff81111561012a575f5ffd5b8701601f8101891361013a575f5ffd5b803567ffffffffffffffff811115610150575f5ffd5b8960208260051b8401011115610164575f5ffd5b6020919091019550935061017a60408801610099565b9250606087013567ffffffffffffffff811115610195575f5ffd5b6101a189828a016100b3565b979a9699509497509295939492505050565b5f5f5f5f5f608086880312156101c7575f5ffd5b85359450602086013567ffffffffffffffff8111156101e4575f5ffd5b860161010081890312156101f6575f5ffd5b935061020460408701610099565b9250606086013567ffffffffffffffff81111561021f575f5ffd5b61022b888289016100b3565b96999598509396509294939250505056fea2646970667358221220760ae9de5b09c7463a31cd94ab17ba4687eb7455b157e9638695f6d6bf1c5f1464736f6c634300081b0033","linkReferences":{}},"methodIdentifiers":{"fill(bytes32,(bytes32,bytes32,uint256,bytes32,uint256,bytes32,bytes,bytes),uint48,bytes)":"978fb896","fillOrderOutputs(bytes32,(bytes32,bytes32,uint256,bytes32,uint256,bytes32,bytes,bytes)[],uint48,bytes)":"7e7fc653"},"id":1}